{"abi":[{"type":"constructor","inputs":[{"name":"_b","type":"address","internalType":"address"}],"stateMutability":"payable"},{"type":"function","name":"donate","inputs":[{"name":"amount","type":"uint256","internalType":"uint256"}],"outputs":[],"stateMutability":"payable"},{"type":"function","name":"payHalf","inputs":[],"outputs":[],"stateMutability":"nonpayable"}],"bytecode":{"object":"0x608060405260405161034b38038061034b83398101604081905261002291610190565b61002b3461008a565b610034336100d6565b6100496001600160e01b031960003516610122565b6100524761008a565b6100656001600160a01b0382163161008a565b600080546001600160a01b0319166001600160a01b03929092169190911790556101c0565b6100d3816040516024016100a091815260200190565b60408051601f198184030181529190526020810180516001600160e01b0390811663f5b1bba960e01b1790915261016f16565b50565b6040516001600160a01b03821660248201526100d39060440160408051601f198184030181529190526020810180516001600160e01b0390811663161765e160e11b1790915261016f16565b6040516001600160e01b0319821660248201526100d39060440160408051601f198184030181529190526020810180516001600160e01b0390811663e05f48d160e01b1790915261016f16565b80516a636f6e736f6c652e6c6f67602083016000808483855afa5050505050565b6000602082840312156101a257600080fd5b81516001600160a01b03811681146101b957600080fd5b9392505050565b61017c806101cf6000396000f3fe6080604052600436106100295760003560e01c80631d9ab2701461002e578063f14faf6f14610045575b600080fd5b34801561003a57600080fd5b50610043610058565b005b61004361005336600461010b565b6100c6565b600080544791906001600160a01b0316610073600284610124565b604051600081818185875af1925050503d80600081146100af576040519150601f19603f3d011682016040523d82523d6000602084013e6100b4565b606091505b50509050806100c257600080fd5b5050565b6127108110156100fd57604051339082156108fc029083906000818181858888f193505050501580156100c2573d6000803e3d6000fd5b6000546001600160a01b0316ff5b60006020828403121561011d57600080fd5b5035919050565b60008261014157634e487b7160e01b600052601260045260246000fd5b50049056fea26469706673582212206b49f46f1cd18cbc35dc9db8b20ce48fdaa282358b34f8b8e44e2b8f68cc756364736f6c63430008190033","linkReferences":{}},"methodIdentifiers":{"donate(uint256)":"f14faf6f","payHalf()":"1d9ab270"},"id":18}