{"abi":[{"type":"function","name":"createOrder","inputs":[{"name":"buyer","type":"address","internalType":"address"},{"name":"seller","type":"address","internalType":"address"},{"name":"amount","type":"uint256","internalType":"uint256"}],"outputs":[],"stateMutability":"nonpayable"},{"type":"function","name":"getOrder","inputs":[{"name":"key","type":"uint256","internalType":"uint256"}],"outputs":[{"name":"","type":"tuple","internalType":"struct Example.Order","components":[{"name":"buyer","type":"address","internalType":"address"},{"name":"seller","type":"address","internalType":"address"},{"name":"amount","type":"uint256","internalType":"uint256"},{"name":"status","type":"uint8","internalType":"enum Example.OrderStatus"}]}],"stateMutability":"view"},{"type":"function","name":"orders","inputs":[{"name":"","type":"uint256","internalType":"uint256"}],"outputs":[{"name":"buyer","type":"address","internalType":"address"},{"name":"seller","type":"address","internalType":"address"},{"name":"amount","type":"uint256","internalType":"uint256"},{"name":"status","type":"uint8","internalType":"enum Example.OrderStatus"}],"stateMutability":"view"},{"type":"function","name":"payment","inputs":[{"name":"key","type":"uint256","internalType":"uint256"}],"outputs":[],"stateMutability":"payable"},{"type":"event","name":"OrderCreated","inputs":[{"name":"key","type":"uint256","indexed":true,"internalType":"uint256"},{"name":"amount","type":"uint256","indexed":false,"internalType":"uint256"}],"anonymous":false}],"bytecode":{"object":"0x6080604052348015600f57600080fd5b506105e78061001f6000396000f3fe60806040526004361061003f5760003560e01c80638b3c99e3146100445780639a5d6a4a14610059578063a85c38ef14610079578063d09ef241146100b2575b600080fd5b610057610052366004610452565b6100df565b005b34801561006557600080fd5b50610057610074366004610487565b6101df565b34801561008557600080fd5b50610099610094366004610452565b610349565b6040516100a994939291906104fb565b60405180910390f35b3480156100be57600080fd5b506100d26100cd366004610452565b610392565b6040516100a99190610530565b336001600160a01b0316600082815481106100fc576100fc610574565b60009182526020909120600490910201546001600160a01b03161461012057600080fd5b346000828154811061013457610134610574565b9060005260206000209060040201600201541461015057600080fd5b600080828154811061016457610164610574565b600091825260209091206003600490920201015460ff16600181111561018c5761018c6104c3565b1461019657600080fd5b6001600082815481106101ab576101ab610574565b60009182526020909120600360049092020101805460ff1916600183818111156101d7576101d76104c3565b021790555050565b604080516080810182526001600160a01b03858116825284811660208301908152928201848152600060608401818152815460018082018455928052855160049091027f290decd9548b62a8d60345a988386fc84ba6bc95484008f6362f93160ef3e563810180549287166001600160a01b031993841617815597517f290decd9548b62a8d60345a988386fc84ba6bc95484008f6362f93160ef3e564820180549190971692169190911790945591517f290decd9548b62a8d60345a988386fc84ba6bc95484008f6362f93160ef3e56584015590517f290decd9548b62a8d60345a988386fc84ba6bc95484008f6362f93160ef3e56690920180549394859490939260ff199091169083818111156102fa576102fa6104c3565b021790555050600054610310915060019061058a565b6040518381527f7ab7b5bf31475b82f820e7fdfd6387632fc391f3bbd3f28afa54804f30bebd4d9060200160405180910390a250505050565b6000818154811061035957600080fd5b600091825260209091206004909102018054600182015460028301546003909301546001600160a01b0392831694509116919060ff1684565b6103ba6040805160808101825260008082526020820181905291810182905290606082015290565b600082815481106103cd576103cd610574565b600091825260209182902060408051608081018252600490930290910180546001600160a01b03908116845260018083015490911694840194909452600281015491830191909152600381015491929091606084019160ff90911690811115610438576104386104c3565b6001811115610449576104496104c3565b90525092915050565b60006020828403121561046457600080fd5b5035919050565b80356001600160a01b038116811461048257600080fd5b919050565b60008060006060848603121561049c57600080fd5b6104a58461046b565b92506104b36020850161046b565b9150604084013590509250925092565b634e487b7160e01b600052602160045260246000fd5b600281106104f757634e487b7160e01b600052602160045260246000fd5b9052565b6001600160a01b03858116825284166020820152604081018390526080810161052760608301846104d9565b95945050505050565b81516001600160a01b0390811682526020808401519091169082015260408083015190820152606080830151608083019161056d908401826104d9565b5092915050565b634e487b7160e01b600052603260045260246000fd5b818103818111156105ab57634e487b7160e01b600052601160045260246000fd5b9291505056fea2646970667358221220e01d87b5265a8dfe577a5f8106c1eff68d5a73ff3bdd1af0f498a254fc5143bb64736f6c63430008190033","linkReferences":{}},"methodIdentifiers":{"createOrder(address,address,uint256)":"9a5d6a4a","getOrder(uint256)":"d09ef241","orders(uint256)":"a85c38ef","payment(uint256)":"8b3c99e3"},"id":18}