{"abi":[{"type":"function","name":"sendAlert","inputs":[{"name":"hero","type":"address","internalType":"address"}],"outputs":[],"stateMutability":"nonpayable"}],"bytecode":{"object":"0x6080604052348015600f57600080fd5b506102728061001f6000396000f3fe608060405234801561001057600080fd5b506004361061002b5760003560e01c8063c53a4fee14610030575b600080fd5b61004361003e3660046101dd565b610045565b005b806001600160a01b03166376d66fdb6040518163ffffffff1660e01b8152600401600060405180830381600087803b15801561008057600080fd5b505af1158015610094573d6000803e3d6000fd5b50506040516376d66fdb60e01b60208201527f76d66fdbed6b58222bf77507e2437e48afab36b3722f2af58539ebbc5ba685429250600091506001600160a01b0384169060240160408051601f19818403018152908290526100f59161020d565b6000604051808303816000865af19150503d8060008114610132576040519150601f19603f3d011682016040523d82523d6000602084013e610137565b606091505b505090508061014557600080fd5b60408051600481526024810182526020810180516001600160e01b03166376d66fdb60e01b17905290516001600160a01b0385169061018590839061020d565b6000604051808303816000865af19150503d80600081146101c2576040519150601f19603f3d011682016040523d82523d6000602084013e6101c7565b606091505b505080925050816101d757600080fd5b50505050565b6000602082840312156101ef57600080fd5b81356001600160a01b038116811461020657600080fd5b9392505050565b6000825160005b8181101561022e5760208186018101518583015201610214565b50600092019182525091905056fea264697066735822122076e1fece19ab2b7b2a81b51ff6df694c91dbc81db5dfc1e7db3e5aaa465655bc64736f6c63430008190033","linkReferences":{}},"methodIdentifiers":{"sendAlert(address)":"c53a4fee"},"id":0}