{"abi":[{"type":"constructor","inputs":[],"stateMutability":"nonpayable"},{"type":"function","name":"modifyArrayCalldata","inputs":[{"name":"nums","type":"uint256[3]","internalType":"uint256[3]"}],"outputs":[],"stateMutability":"view"}],"bytecode":{"object":"0x608060405234801561001057600080fd5b50600380546001818101835560008381527fc2575a0e9e593c00f959f8c92f12db2869c3395a3b0502d05e2516446f71f85b9283018290558354808301855560029084015583548083018555830184905583548083018555600490840155835491820190935560059101555b6003548110156100ba576100b26003828154811061009c5761009c6102a2565b906000526020600020015461022760201b60201c565b60010161007c565b5060038054806100cc576100cc6102b8565b6001900381819060005260206000200160009055905560038054806100f3576100f36102b8565b60019003818190600052602060002001600090559055600380548061011a5761011a6102b8565b6001900381819060005260206000200160009055905560005b60035481101561015b576101536003828154811061009c5761009c6102a2565b600101610133565b506040805160608101918290526101939160009060039082845b81548152602001906001019080831161017557505061027392505050565b6101a16000805b0154610227565b6101ad6000600161019a565b601660005560176001556101c260008061019a565b6101ce6000600161019a565b604051631bc355e160e31b8152309063de1aaf08906101f2906000906004016102ce565b60006040518083038186803b15801561020a57600080fd5b505afa15801561021e573d6000803e3d6000fd5b505050506102ff565b6102708160405160240161023d91815260200190565b60408051601f198184030181529190526020810180516001600160e01b0390811663f5b1bba960e01b1790915261028116565b50565b601681526017602090910152565b80516a636f6e736f6c652e6c6f67602083016000808483855afa5050505050565b634e487b7160e01b600052603260045260246000fd5b634e487b7160e01b600052603160045260246000fd5b60608101818360005b60038110156102f65781548352602090920191600191820191016102d7565b50505092915050565b6101148061030e6000396000f3fe6080604052348015600f57600080fd5b506004361060285760003560e01c8063de1aaf0814602d575b600080fd5b603c603836600460b8565b603e565b005b604d8160005b60200201356059565b60568160016044565b50565b605681604051602401606d91815260200190565b60408051601f198184030181529190526020810180516001600160e01b031663f5b1bba960e01b17905280516a636f6e736f6c652e6c6f67602083016000808483855afa5050505050565b60006060828403121560c957600080fd5b8260608301111560d857600080fd5b5091905056fea26469706673582212200bd0d1b5696abecf879fc02768b5ff24c6ee4f52735f5c4b759ea5384b0c7ac564736f6c63430008190033","linkReferences":{}},"methodIdentifiers":{"modifyArrayCalldata(uint256[3])":"de1aaf08"},"id":18}