{"abi":[{"type":"constructor","inputs":[{"name":"_b","type":"address","internalType":"address"}],"stateMutability":"nonpayable"},{"type":"function","name":"sum","inputs":[],"outputs":[{"name":"","type":"uint256","internalType":"uint256"}],"stateMutability":"view"}],"bytecode":{"object":"0x608060405234801561001057600080fd5b5060405161028938038061028983398101604081905261002f916101b5565b600180546001600160a01b0383166001600160a01b03199091168117909155604051600091829161007e9063771602f760e01b8152600960e01b6020820152600560e11b604082015260440190565b6000604051808303816000865af19150503d80600081146100bb576040519150601f19603f3d011682016040523d82523d6000602084013e6100c0565b606091505b5090925090506100cf82610103565b816100d957600080fd5b808060200190518101906100ed91906101e5565b60008190556100fb9061014b565b5050506101fe565b60405181151560248201526101489060440160408051601f198184030181529190526020810180516001600160e01b039081166332458eed60e01b1790915261019416565b50565b6101488160405160240161016191815260200190565b60408051601f198184030181529190526020810180516001600160e01b0390811663f5b1bba960e01b1790915261019416565b80516a636f6e736f6c652e6c6f67602083016000808483855afa5050505050565b6000602082840312156101c757600080fd5b81516001600160a01b03811681146101de57600080fd5b9392505050565b6000602082840312156101f757600080fd5b5051919050565b607d8061020c6000396000f3fe6080604052348015600f57600080fd5b506004361060285760003560e01c8063853255cc14602d575b600080fd5b603560005481565b60405190815260200160405180910390f3fea26469706673582212207b21b50f1e5efe63aae55edafedbdf3592413c611424ba020d5238de0ea5b6ef64736f6c63430008190033","linkReferences":{}},"methodIdentifiers":{"sum()":"853255cc"},"id":18}