{"abi":[{"type":"fallback","stateMutability":"nonpayable"},{"type":"function","name":"add","inputs":[{"name":"x","type":"uint256","internalType":"uint256"},{"name":"y","type":"uint256","internalType":"uint256"}],"outputs":[{"name":"","type":"uint256","internalType":"uint256"}],"stateMutability":"pure"}],"bytecode":{"object":"0x6080604052348015600f57600080fd5b506102348061001f6000396000f3fe608060405234801561001057600080fd5b506004361061002b5760003560e01c8063771602f714610082575b6100406000356001600160e01b0319166100a7565b6100806000368080601f0160208091040260200160405190810160405280939291908181526020018383808284376000920191909152506100f392505050565b005b61009561009036600461016c565b610136565b60405190815260200160405180910390f35b6040516001600160e01b0319821660248201526100f09060440160408051601f198184030181529190526020810180516001600160e01b031663e05f48d160e01b17905261014b565b50565b6100f081604051602401610107919061018e565b60408051601f198184030181529190526020810180516001600160e01b03166305f3bfab60e11b17905261014b565b600061014282846101dd565b90505b92915050565b80516a636f6e736f6c652e6c6f67602083016000808483855afa5050505050565b6000806040838503121561017f57600080fd5b50508035926020909101359150565b60006020808352835180602085015260005b818110156101bc578581018301518582016040015282016101a0565b506000604082860101526040601f19601f8301168501019250505092915050565b8082018082111561014557634e487b7160e01b600052601160045260246000fdfea2646970667358221220a8f1cfa33d872762a3d5d7c3e48a3e3631533fc72655d30d3495fcf3240122a464736f6c63430008190033","linkReferences":{}},"methodIdentifiers":{"add(uint256,uint256)":"771602f7"},"id":18}