{"abi":[{"type":"constructor","inputs":[{"name":"choice","type":"uint8","internalType":"enum Example.Choice"}],"stateMutability":"nonpayable"},{"type":"function","name":"a","inputs":[],"outputs":[{"name":"","type":"uint8","internalType":"uint8"}],"stateMutability":"view"}],"bytecode":{"object":"0x60806040526000805460ff1990811660ff179091556016600155600280548216607f17905560361960035563ffffffff60045560058054909116905534801561004757600080fd5b506040516104963803806104968339810160408190526100669161031f565b6000546100759060ff166101d5565b6000805460ff8082166001011660ff199091168117909155610096906101d5565b600080546002919081906100ae90849060ff1661035d565b82546101009290920a60ff8181021990931691831602179091556000546100d69250166101d5565b6004546100e2906101d5565b6004546100ee90610221565b63ffffffff6101046001600160e01b031961026a565b60055460ff1661013357604080518082019091526005815264796161617960d81b6020820152610133906102b7565b60008260038111156101475761014761037c565b0361017357604080518082019091526002815261075760f41b602082015261016e906102b7565b61019f565b60408051808201909152600c81526b77726f6e672063686f69636560a01b602082015261019f906102b7565b604561ffff6101ad816101d5565b60006101bc8260ff8516610392565b61ffff1690506101cb816101d5565b5050505050610403565b61021e816040516024016101eb91815260200190565b60408051601f198184030181529190526020810180516001600160e01b0390811663f5b1bba960e01b179091526102fe16565b50565b61021e8160405160240161023791815260200190565b60408051601f198184030181529190526020810180516001600160e01b039081166327b7cf8560e01b179091526102fe16565b6040516001600160e01b03198216602482015261021e9060440160408051601f198184030181529190526020810180516001600160e01b0390811663e05f48d160e01b179091526102fe16565b61021e816040516024016102cb91906103b4565b60408051601f198184030181529190526020810180516001600160e01b0390811663104c13eb60e21b179091526102fe16565b80516a636f6e736f6c652e6c6f67602083016000808483855afa5050505050565b60006020828403121561033157600080fd5b81516004811061034057600080fd5b9392505050565b634e487b7160e01b600052601160045260246000fd5b60ff818116838216019081111561037657610376610347565b92915050565b634e487b7160e01b600052602160045260246000fd5b61ffff8181168382160190808211156103ad576103ad610347565b5092915050565b60006020808352835180602085015260005b818110156103e2578581018301518582016040015282016103c6565b506000604082860101526040601f19601f8301168501019250505092915050565b6085806104116000396000f3fe6080604052348015600f57600080fd5b506004361060285760003560e01c80630dbe671f14602d575b600080fd5b60005460399060ff1681565b60405160ff909116815260200160405180910390f3fea2646970667358221220ab738edaf24dd8a43ec495237b2c23e91f25153059a17d92d0126067d1ea6c7764736f6c63430008190033","linkReferences":{}},"methodIdentifiers":{"a()":"0dbe671f"},"id":18}