{"abi":[{"type":"constructor","inputs":[{"name":"b","type":"address","internalType":"address"}],"stateMutability":"payable"},{"type":"function","name":"errorsCount","inputs":[],"outputs":[{"name":"","type":"uint256","internalType":"uint256"}],"stateMutability":"view"},{"type":"function","name":"withdraw","inputs":[{"name":"str","type":"string","internalType":"string"}],"outputs":[],"stateMutability":"nonpayable"},{"type":"error","name":"NotDeployer","inputs":[{"name":"","type":"address","internalType":"address"}]}],"bytecode":{"object":"0x608060405260006001556040516104ff3803806104ff83398101604081905260259160a4565b670de0b6b3a764000034101560805760405162461bcd60e51b815260206004820152601760248201527f76616c7565206c657373207468616e206d696e696d756e000000000000000000604482015260640160405180910390fd5b600080546001600160a01b0319166001600160a01b039290921691909117905560d2565b60006020828403121560b557600080fd5b81516001600160a01b038116811460cb57600080fd5b9392505050565b61041e806100e16000396000f3fe608060405234801561001057600080fd5b50600436106100365760003560e01c806331fb67c21461003b5780635fa8cf5114610050575b600080fd5b61004e61004936600461028c565b61006b565b005b61005960015481565b60405190815260200160405180910390f35b6040805180820190915260088152673232b83637bcb2b960c11b60208201526000546100a091906001600160a01b03166101b1565b6100cc6040518060400160405280600a81526020016936b9b39739b2b73232b960b11b815250336101b1565b6000546001600160a01b03163314806100e957506100e9816101fa565b1561017b5760408051808201909152600f81526e636f6e74726163744164647265737360881b6020820152309061012090826101b1565b600080546040516001600160a01b0391821692918416319181818185875af1925050503d806000811461016f576040519150601f19603f3d011682016040523d82523d6000602084013e610174565b606091505b5050505050565b600180600082825461018d919061033d565b9091555050604051630646601b60e11b815233600482015260240160405180910390fd5b6101f682826040516024016101c7929190610388565b60408051601f198184030181529190526020810180516001600160e01b031663319af33360e01b179052610255565b5050565b604051637870746f60e01b6020820152600090602401604051602081830303815290604052805190602001208260405160200161023791906103cc565b60405160208183030381529060405280519060200120149050919050565b80516a636f6e736f6c652e6c6f67602083016000808483855afa5050505050565b634e487b7160e01b600052604160045260246000fd5b60006020828403121561029e57600080fd5b813567ffffffffffffffff808211156102b657600080fd5b818401915084601f8301126102ca57600080fd5b8135818111156102dc576102dc610276565b604051601f8201601f19908116603f0116810190838211818310171561030457610304610276565b8160405282815287602084870101111561031d57600080fd5b826020860160208301376000928101602001929092525095945050505050565b8082018082111561035e57634e487b7160e01b600052601160045260246000fd5b92915050565b60005b8381101561037f578181015183820152602001610367565b50506000910152565b60408152600083518060408401526103a7816060850160208801610364565b6001600160a01b0393909316602083015250601f91909101601f191601606001919050565b600082516103de818460208701610364565b919091019291505056fea26469706673582212205885ecadc56011dc6dfeb5ab81d8bf95e3fef99292b253acf5c9bc3c381dced664736f6c63430008190033","linkReferences":{}},"methodIdentifiers":{"errorsCount()":"5fa8cf51","withdraw(string)":"31fb67c2"},"id":19}