{"abi":[{"type":"constructor","inputs":[{"name":"_b","type":"address","internalType":"address"}],"stateMutability":"nonpayable"},{"type":"function","name":"callB","inputs":[],"outputs":[],"stateMutability":"payable"},{"type":"function","name":"errorsCount","inputs":[],"outputs":[{"name":"","type":"uint256","internalType":"uint256"}],"stateMutability":"view"}],"bytecode":{"object":"0x60806040526000600155348015601457600080fd5b506040516102f63803806102f68339810160408190526031916055565b600080546001600160a01b0319166001600160a01b03929092169190911790556083565b600060208284031215606657600080fd5b81516001600160a01b0381168114607c57600080fd5b9392505050565b610264806100926000396000f3fe6080604052600436106100295760003560e01c806344fd4fa01461002e5780635fa8cf5114610038575b600080fd5b610036610060565b005b34801561004457600080fd5b5061004e60015481565b60405190815260200160405180910390f35b6000805460405182916001600160a01b031690670de0b6b3a7640000908381818185875af1925050503d80600081146100b5576040519150601f19603f3d011682016040523d82523d6000602084013e6100ba565b606091505b50915091508161010c576100cd81610110565b6100f67f568804639171345705b794b2fd1a938758dc6b678c203b630b224e0da48a84ad610156565b60018054906000610106836101b8565b91905055505b5050565b6101538160405160240161012491906101df565b60408051601f198184030181529190526020810180516001600160e01b03166305f3bfab60e11b179052610197565b50565b6101538160405160240161016c91815260200190565b60408051601f198184030181529190526020810180516001600160e01b03166327b7cf8560e01b1790525b80516a636f6e736f6c652e6c6f67602083016000808483855afa5050505050565b6000600182016101d857634e487b7160e01b600052601160045260246000fd5b5060010190565b60006020808352835180602085015260005b8181101561020d578581018301518582016040015282016101f1565b506000604082860101526040601f19601f830116850101925050509291505056fea2646970667358221220a90519e608bbf8054638edd519ac08133c29f0c0ebac13ad9a6a2ccc915e365f64736f6c63430008190033","linkReferences":{}},"methodIdentifiers":{"callB()":"44fd4fa0","errorsCount()":"5fa8cf51"},"id":18}